{
  "_format": "hh-sol-artifact-1",
  "contractName": "Arena",
  "sourceName": "contracts/Arena.sol",
  "abi": [
    {
      "inputs": [],
      "stateMutability": "nonpayable",
      "type": "constructor"
    },
    {
      "inputs": [
        {
          "internalType": "address",
          "name": "owner",
          "type": "address"
        }
      ],
      "name": "OwnableInvalidOwner",
      "type": "error"
    },
    {
      "inputs": [
        {
          "internalType": "address",
          "name": "account",
          "type": "address"
        }
      ],
      "name": "OwnableUnauthorizedAccount",
      "type": "error"
    },
    {
      "anonymous": false,
      "inputs": [
        {
          "indexed": true,
          "internalType": "address",
          "name": "agent",
          "type": "address"
        }
      ],
      "name": "AgentRegistered",
      "type": "event"
    },
    {
      "anonymous": false,
      "inputs": [
        {
          "indexed": true,
          "internalType": "uint256",
          "name": "roundId",
          "type": "uint256"
        },
        {
          "indexed": true,
          "internalType": "address",
          "name": "user",
          "type": "address"
        },
        {
          "indexed": true,
          "internalType": "address",
          "name": "agent",
          "type": "address"
        },
        {
          "indexed": false,
          "internalType": "uint256",
          "name": "amount",
          "type": "uint256"
        }
      ],
      "name": "BetPlaced",
      "type": "event"
    },
    {
      "anonymous": false,
      "inputs": [
        {
          "indexed": true,
          "internalType": "uint256",
          "name": "roundId",
          "type": "uint256"
        },
        {
          "indexed": true,
          "internalType": "address",
          "name": "admin",
          "type": "address"
        },
        {
          "indexed": false,
          "internalType": "uint256",
          "name": "amount",
          "type": "uint256"
        }
      ],
      "name": "LostFundsSwept",
      "type": "event"
    },
    {
      "anonymous": false,
      "inputs": [
        {
          "indexed": true,
          "internalType": "address",
          "name": "previousOwner",
          "type": "address"
        },
        {
          "indexed": true,
          "internalType": "address",
          "name": "newOwner",
          "type": "address"
        }
      ],
      "name": "OwnershipTransferred",
      "type": "event"
    },
    {
      "anonymous": false,
      "inputs": [
        {
          "indexed": true,
          "internalType": "uint256",
          "name": "roundId",
          "type": "uint256"
        },
        {
          "indexed": true,
          "internalType": "address",
          "name": "user",
          "type": "address"
        },
        {
          "indexed": false,
          "internalType": "uint256",
          "name": "amount",
          "type": "uint256"
        }
      ],
      "name": "PrizePaid",
      "type": "event"
    },
    {
      "anonymous": false,
      "inputs": [
        {
          "indexed": true,
          "internalType": "uint256",
          "name": "roundId",
          "type": "uint256"
        },
        {
          "indexed": true,
          "internalType": "address",
          "name": "winner",
          "type": "address"
        },
        {
          "indexed": false,
          "internalType": "uint256",
          "name": "totalPot",
          "type": "uint256"
        }
      ],
      "name": "RoundEnded",
      "type": "event"
    },
    {
      "anonymous": false,
      "inputs": [
        {
          "indexed": true,
          "internalType": "address",
          "name": "agent",
          "type": "address"
        },
        {
          "indexed": false,
          "internalType": "string",
          "name": "action",
          "type": "string"
        },
        {
          "indexed": false,
          "internalType": "uint256",
          "name": "amount",
          "type": "uint256"
        },
        {
          "indexed": false,
          "internalType": "uint256",
          "name": "newBalance",
          "type": "uint256"
        }
      ],
      "name": "Trade",
      "type": "event"
    },
    {
      "inputs": [
        {
          "internalType": "address",
          "name": "",
          "type": "address"
        }
      ],
      "name": "balances",
      "outputs": [
        {
          "internalType": "uint256",
          "name": "",
          "type": "uint256"
        }
      ],
      "stateMutability": "view",
      "type": "function"
    },
    {
      "inputs": [
        {
          "internalType": "uint256",
          "name": "",
          "type": "uint256"
        },
        {
          "internalType": "address",
          "name": "",
          "type": "address"
        }
      ],
      "name": "bets",
      "outputs": [
        {
          "internalType": "uint256",
          "name": "amount",
          "type": "uint256"
        },
        {
          "internalType": "address",
          "name": "agent",
          "type": "address"
        }
      ],
      "stateMutability": "view",
      "type": "function"
    },
    {
      "inputs": [],
      "name": "bettingActive",
      "outputs": [
        {
          "internalType": "bool",
          "name": "",
          "type": "bool"
        }
      ],
      "stateMutability": "view",
      "type": "function"
    },
    {
      "inputs": [
        {
          "internalType": "uint256",
          "name": "amount",
          "type": "uint256"
        }
      ],
      "name": "buy",
      "outputs": [],
      "stateMutability": "nonpayable",
      "type": "function"
    },
    {
      "inputs": [],
      "name": "currentRoundId",
      "outputs": [
        {
          "internalType": "uint256",
          "name": "",
          "type": "uint256"
        }
      ],
      "stateMutability": "view",
      "type": "function"
    },
    {
      "inputs": [
        {
          "internalType": "address",
          "name": "_winner",
          "type": "address"
        }
      ],
      "name": "endRound",
      "outputs": [],
      "stateMutability": "nonpayable",
      "type": "function"
    },
    {
      "inputs": [
        {
          "internalType": "uint256",
          "name": "_roundId",
          "type": "uint256"
        }
      ],
      "name": "getRoundBettorCount",
      "outputs": [
        {
          "internalType": "uint256",
          "name": "",
          "type": "uint256"
        }
      ],
      "stateMutability": "view",
      "type": "function"
    },
    {
      "inputs": [
        {
          "internalType": "address",
          "name": "",
          "type": "address"
        }
      ],
      "name": "isAgent",
      "outputs": [
        {
          "internalType": "bool",
          "name": "",
          "type": "bool"
        }
      ],
      "stateMutability": "view",
      "type": "function"
    },
    {
      "inputs": [],
      "name": "owner",
      "outputs": [
        {
          "internalType": "address",
          "name": "",
          "type": "address"
        }
      ],
      "stateMutability": "view",
      "type": "function"
    },
    {
      "inputs": [
        {
          "internalType": "address",
          "name": "_agent",
          "type": "address"
        }
      ],
      "name": "placeBet",
      "outputs": [],
      "stateMutability": "payable",
      "type": "function"
    },
    {
      "inputs": [
        {
          "internalType": "address",
          "name": "_agent",
          "type": "address"
        }
      ],
      "name": "registerAgent",
      "outputs": [],
      "stateMutability": "nonpayable",
      "type": "function"
    },
    {
      "inputs": [],
      "name": "renounceOwnership",
      "outputs": [],
      "stateMutability": "nonpayable",
      "type": "function"
    },
    {
      "inputs": [
        {
          "internalType": "uint256",
          "name": "",
          "type": "uint256"
        },
        {
          "internalType": "address",
          "name": "",
          "type": "address"
        }
      ],
      "name": "roundBetsOnAgent",
      "outputs": [
        {
          "internalType": "uint256",
          "name": "",
          "type": "uint256"
        }
      ],
      "stateMutability": "view",
      "type": "function"
    },
    {
      "inputs": [
        {
          "internalType": "uint256",
          "name": "",
          "type": "uint256"
        }
      ],
      "name": "roundIsOver",
      "outputs": [
        {
          "internalType": "bool",
          "name": "",
          "type": "bool"
        }
      ],
      "stateMutability": "view",
      "type": "function"
    },
    {
      "inputs": [
        {
          "internalType": "uint256",
          "name": "",
          "type": "uint256"
        }
      ],
      "name": "roundPot",
      "outputs": [
        {
          "internalType": "uint256",
          "name": "",
          "type": "uint256"
        }
      ],
      "stateMutability": "view",
      "type": "function"
    },
    {
      "inputs": [
        {
          "internalType": "uint256",
          "name": "",
          "type": "uint256"
        }
      ],
      "name": "roundWinners",
      "outputs": [
        {
          "internalType": "address",
          "name": "",
          "type": "address"
        }
      ],
      "stateMutability": "view",
      "type": "function"
    },
    {
      "inputs": [
        {
          "internalType": "uint256",
          "name": "amount",
          "type": "uint256"
        }
      ],
      "name": "sell",
      "outputs": [],
      "stateMutability": "nonpayable",
      "type": "function"
    },
    {
      "inputs": [
        {
          "internalType": "bool",
          "name": "_active",
          "type": "bool"
        }
      ],
      "name": "setBettingActive",
      "outputs": [],
      "stateMutability": "nonpayable",
      "type": "function"
    },
    {
      "inputs": [],
      "name": "token",
      "outputs": [
        {
          "internalType": "contract MockMeme",
          "name": "",
          "type": "address"
        }
      ],
      "stateMutability": "view",
      "type": "function"
    },
    {
      "inputs": [
        {
          "internalType": "address",
          "name": "newOwner",
          "type": "address"
        }
      ],
      "name": "transferOwnership",
      "outputs": [],
      "stateMutability": "nonpayable",
      "type": "function"
    }
  ],
  "bytecode": "0x608060405260016004556000600b60006101000a81548160ff0219169083151502179055503480156200003157600080fd5b5033600073ffffffffffffffffffffffffffffffffffffffff168173ffffffffffffffffffffffffffffffffffffffff1603620000a85760006040517f1e4fbdf70000000000000000000000000000000000000000000000000000000081526004016200009f919062000243565b60405180910390fd5b620000b9816200012c60201b60201c565b50604051620000c890620001f0565b604051809103906000f080158015620000e5573d6000803e3d6000fd5b50600160006101000a81548173ffffffffffffffffffffffffffffffffffffffff021916908373ffffffffffffffffffffffffffffffffffffffff16021790555062000260565b60008060009054906101000a900473ffffffffffffffffffffffffffffffffffffffff169050816000806101000a81548173ffffffffffffffffffffffffffffffffffffffff021916908373ffffffffffffffffffffffffffffffffffffffff1602179055508173ffffffffffffffffffffffffffffffffffffffff168173ffffffffffffffffffffffffffffffffffffffff167f8be0079c531659141344cd1fd0a4f28419497f9722a3daafe3b4186f6b6457e060405160405180910390a35050565b6118ab806200226383390190565b600073ffffffffffffffffffffffffffffffffffffffff82169050919050565b60006200022b82620001fe565b9050919050565b6200023d816200021e565b82525050565b60006020820190506200025a600083018462000232565b92915050565b611ff380620002706000396000f3fe60806040526004361061011f5760003560e01c80639cbe5efd116100a0578063d9a457fe11610064578063d9a457fe146103fe578063e4849b3214610427578063f2fde38b14610450578063f644b3bb14610479578063fc0c546a146104b75761011f565b80639cbe5efd14610319578063a5ee33cf14610344578063a914fe941461036f578063d756b5c7146103ac578063d96a094a146103d55761011f565b80634ba5299d116100e75780634ba5299d14610220578063715018a61461025d57806376a4956c1461027457806379affbab146102b15780638da5cb5b146102ee5761011f565b80631ffbb0641461012457806327e235e314610161578063306b9bb91461019e57806330996897146101c7578063451ca855146101e3575b600080fd5b34801561013057600080fd5b5061014b600480360381019061014691906116f0565b6104e2565b6040516101589190611738565b60405180910390f35b34801561016d57600080fd5b50610188600480360381019061018391906116f0565b610502565b604051610195919061176c565b60405180910390f35b3480156101aa57600080fd5b506101c560048036038101906101c091906116f0565b61051a565b005b6101e160048036038101906101dc91906116f0565b6105c0565b005b3480156101ef57600080fd5b5061020a600480360381019061020591906117b3565b6109bd565b6040516102179190611738565b60405180910390f35b34801561022c57600080fd5b50610247600480360381019061024291906117b3565b6109dd565b604051610254919061176c565b60405180910390f35b34801561026957600080fd5b506102726109fd565b005b34801561028057600080fd5b5061029b600480360381019061029691906117b3565b610a11565b6040516102a891906117ef565b60405180910390f35b3480156102bd57600080fd5b506102d860048036038101906102d3919061180a565b610a44565b6040516102e5919061176c565b60405180910390f35b3480156102fa57600080fd5b50610303610a69565b60405161031091906117ef565b60405180910390f35b34801561032557600080fd5b5061032e610a92565b60405161033b919061176c565b60405180910390f35b34801561035057600080fd5b50610359610a98565b6040516103669190611738565b60405180910390f35b34801561037b57600080fd5b50610396600480360381019061039191906117b3565b610aab565b6040516103a3919061176c565b60405180910390f35b3480156103b857600080fd5b506103d360048036038101906103ce9190611876565b610ac3565b005b3480156103e157600080fd5b506103fc60048036038101906103f791906117b3565b610ae8565b005b34801561040a57600080fd5b50610425600480360381019061042091906116f0565b610c5c565b005b34801561043357600080fd5b5061044e600480360381019061044991906117b3565b611247565b005b34801561045c57600080fd5b50610477600480360381019061047291906116f0565b61143d565b005b34801561048557600080fd5b506104a0600480360381019061049b919061180a565b6114c3565b6040516104ae9291906118a3565b60405180910390f35b3480156104c357600080fd5b506104cc611514565b6040516104d9919061192b565b60405180910390f35b60026020528060005260406000206000915054906101000a900460ff1681565b60036020528060005260406000206000915090505481565b61052261153a565b6001600260008373ffffffffffffffffffffffffffffffffffffffff1673ffffffffffffffffffffffffffffffffffffffff16815260200190815260200160002060006101000a81548160ff0219169083151502179055508073ffffffffffffffffffffffffffffffffffffffff167f82d0829d9d481e4cb9913897f9b9c903271c4db68c7b3324071d2a7e3b2c5ff060405160405180910390a250565b600b60009054906101000a900460ff1661060f576040517f08c379a0000000000000000000000000000000000000000000000000000000008152600401610606906119a3565b60405180910390fd5b600260008273ffffffffffffffffffffffffffffffffffffffff1673ffffffffffffffffffffffffffffffffffffffff16815260200190815260200160002060009054906101000a900460ff1661069b576040517f08c379a000000000000000000000000000000000000000000000000000000000815260040161069290611a0f565b60405180910390fd5b600034116106de576040517f08c379a00000000000000000000000000000000000000000000000000000000081526004016106d590611a7b565b60405180910390fd5b600060056000600454815260200190815260200160002060003373ffffffffffffffffffffffffffffffffffffffff1673ffffffffffffffffffffffffffffffffffffffff1681526020019081526020016000206000015414610776576040517f08c379a000000000000000000000000000000000000000000000000000000000815260040161076d90611ae7565b60405180910390fd5b60405180604001604052803481526020018273ffffffffffffffffffffffffffffffffffffffff1681525060056000600454815260200190815260200160002060003373ffffffffffffffffffffffffffffffffffffffff1673ffffffffffffffffffffffffffffffffffffffff1681526020019081526020016000206000820151816000015560208201518160010160006101000a81548173ffffffffffffffffffffffffffffffffffffffff021916908373ffffffffffffffffffffffffffffffffffffffff160217905550905050600a60006004548152602001908152602001600020339080600181540180825580915050600190039060005260206000200160009091909190916101000a81548173ffffffffffffffffffffffffffffffffffffffff021916908373ffffffffffffffffffffffffffffffffffffffff1602179055503460066000600454815260200190815260200160002060008373ffffffffffffffffffffffffffffffffffffffff1673ffffffffffffffffffffffffffffffffffffffff168152602001908152602001600020600082825461091f9190611b36565b9250508190555034600760006004548152602001908152602001600020600082825461094b9190611b36565b925050819055508073ffffffffffffffffffffffffffffffffffffffff163373ffffffffffffffffffffffffffffffffffffffff166004547f4108a54a721949460b35685fb714a531f3002d5f831f59a7c8214f72a054e4d2346040516109b2919061176c565b60405180910390a450565b60096020528060005260406000206000915054906101000a900460ff1681565b6000600a6000838152602001908152602001600020805490509050919050565b610a0561153a565b610a0f60006115c1565b565b60086020528060005260406000206000915054906101000a900473ffffffffffffffffffffffffffffffffffffffff1681565b6006602052816000526040600020602052806000526040600020600091509150505481565b60008060009054906101000a900473ffffffffffffffffffffffffffffffffffffffff16905090565b60045481565b600b60009054906101000a900460ff1681565b60076020528060005260406000206000915090505481565b610acb61153a565b80600b60006101000a81548160ff02191690831515021790555050565b600260003373ffffffffffffffffffffffffffffffffffffffff1673ffffffffffffffffffffffffffffffffffffffff16815260200190815260200160002060009054906101000a900460ff16610b74576040517f08c379a0000000000000000000000000000000000000000000000000000000008152600401610b6b90611bb6565b60405180910390fd5b80600360003373ffffffffffffffffffffffffffffffffffffffff1673ffffffffffffffffffffffffffffffffffffffff1681526020019081526020016000206000828254610bc39190611b36565b925050819055503373ffffffffffffffffffffffffffffffffffffffff167ffd2fa88697ecae044911fd6d93ef1fc13ebe8731d66e81850523c39a8dad610982600360003373ffffffffffffffffffffffffffffffffffffffff1673ffffffffffffffffffffffffffffffffffffffff16815260200190815260200160002054604051610c51929190611c22565b60405180910390a250565b610c6461153a565b600260008273ffffffffffffffffffffffffffffffffffffffff1673ffffffffffffffffffffffffffffffffffffffff16815260200190815260200160002060009054906101000a900460ff16610cf0576040517f08c379a0000000000000000000000000000000000000000000000000000000008152600401610ce790611caa565b60405180910390fd5b60096000600454815260200190815260200160002060009054906101000a900460ff1615610d53576040517f08c379a0000000000000000000000000000000000000000000000000000000008152600401610d4a90611d16565b60405180910390fd5b60006004549050816008600083815260200190815260200160002060006101000a81548173ffffffffffffffffffffffffffffffffffffffff021916908373ffffffffffffffffffffffffffffffffffffffff16021790555060016009600083815260200190815260200160002060006101000a81548160ff0219169083151502179055506000600760008381526020019081526020016000205490506000808211156111da5760006006600085815260200190815260200160002060008673ffffffffffffffffffffffffffffffffffffffff1673ffffffffffffffffffffffffffffffffffffffff1681526020019081526020016000205490506000600a6000868152602001908152602001600020905060005b81805490508110156110ea576000600560008881526020019081526020016000206000848481548110610e9f57610e9e611d36565b5b9060005260206000200160009054906101000a900473ffffffffffffffffffffffffffffffffffffffff1673ffffffffffffffffffffffffffffffffffffffff1673ffffffffffffffffffffffffffffffffffffffff16815260200190815260200160002090508773ffffffffffffffffffffffffffffffffffffffff168160010160009054906101000a900473ffffffffffffffffffffffffffffffffffffffff1673ffffffffffffffffffffffffffffffffffffffff16148015610f655750600084115b156110d657600084878360000154610f7d9190611d65565b610f879190611dd6565b90508086610f959190611b36565b95506000848481548110610fac57610fab611d36565b5b9060005260206000200160009054906101000a900473ffffffffffffffffffffffffffffffffffffffff1673ffffffffffffffffffffffffffffffffffffffff1682604051610ffa90611e38565b60006040518083038185875af1925050503d8060008114611037576040519150601f19603f3d011682016040523d82523d6000602084013e61103c565b606091505b5050905080156110d35784848154811061105957611058611d36565b5b9060005260206000200160009054906101000a900473ffffffffffffffffffffffffffffffffffffffff1673ffffffffffffffffffffffffffffffffffffffff16897ffcf35a3fc019052976cdcd0cd1a67217972ee331e0b9bf6a37f2fddfa276a014846040516110ca919061176c565b60405180910390a35b50505b5080806110e290611e4d565b915050610e69565b50600083856110f99190611e95565b905060008111156111d657600061110e610a69565b73ffffffffffffffffffffffffffffffffffffffff168260405161113190611e38565b60006040518083038185875af1925050503d806000811461116e576040519150601f19603f3d011682016040523d82523d6000602084013e611173565b606091505b5050905080156111d457611185610a69565b73ffffffffffffffffffffffffffffffffffffffff16877f470c9b9901a155780b358990f233cb486b27cc043e217d782a09480c66a7ab17846040516111cb919061176c565b60405180910390a35b505b5050505b8373ffffffffffffffffffffffffffffffffffffffff16837f131b90b0b17f70b8bf8a6ae2fe2b36c8f64bffde76602ce01ec0a7dc2e3ba57d84604051611221919061176c565b60405180910390a36004600081548092919061123c90611e4d565b919050555050505050565b600260003373ffffffffffffffffffffffffffffffffffffffff1673ffffffffffffffffffffffffffffffffffffffff16815260200190815260200160002060009054906101000a900460ff166112d3576040517f08c379a00000000000000000000000000000000000000000000000000000000081526004016112ca90611bb6565b60405180910390fd5b80600360003373ffffffffffffffffffffffffffffffffffffffff1673ffffffffffffffffffffffffffffffffffffffff168152602001908152602001600020541015611355576040517f08c379a000000000000000000000000000000000000000000000000000000000815260040161134c90611f15565b60405180910390fd5b80600360003373ffffffffffffffffffffffffffffffffffffffff1673ffffffffffffffffffffffffffffffffffffffff16815260200190815260200160002060008282546113a49190611e95565b925050819055503373ffffffffffffffffffffffffffffffffffffffff167ffd2fa88697ecae044911fd6d93ef1fc13ebe8731d66e81850523c39a8dad610982600360003373ffffffffffffffffffffffffffffffffffffffff1673ffffffffffffffffffffffffffffffffffffffff16815260200190815260200160002054604051611432929190611f81565b60405180910390a250565b61144561153a565b600073ffffffffffffffffffffffffffffffffffffffff168173ffffffffffffffffffffffffffffffffffffffff16036114b75760006040517f1e4fbdf70000000000000000000000000000000000000000000000000000000081526004016114ae91906117ef565b60405180910390fd5b6114c0816115c1565b50565b6005602052816000526040600020602052806000526040600020600091509150508060000154908060010160009054906101000a900473ffffffffffffffffffffffffffffffffffffffff16905082565b600160009054906101000a900473ffffffffffffffffffffffffffffffffffffffff1681565b611542611685565b73ffffffffffffffffffffffffffffffffffffffff16611560610a69565b73ffffffffffffffffffffffffffffffffffffffff16146115bf57611583611685565b6040517f118cdaa70000000000000000000000000000000000000000000000000000000081526004016115b691906117ef565b60405180910390fd5b565b60008060009054906101000a900473ffffffffffffffffffffffffffffffffffffffff169050816000806101000a81548173ffffffffffffffffffffffffffffffffffffffff021916908373ffffffffffffffffffffffffffffffffffffffff1602179055508173ffffffffffffffffffffffffffffffffffffffff168173ffffffffffffffffffffffffffffffffffffffff167f8be0079c531659141344cd1fd0a4f28419497f9722a3daafe3b4186f6b6457e060405160405180910390a35050565b600033905090565b600080fd5b600073ffffffffffffffffffffffffffffffffffffffff82169050919050565b60006116bd82611692565b9050919050565b6116cd816116b2565b81146116d857600080fd5b50565b6000813590506116ea816116c4565b92915050565b6000602082840312156117065761170561168d565b5b6000611714848285016116db565b91505092915050565b60008115159050919050565b6117328161171d565b82525050565b600060208201905061174d6000830184611729565b92915050565b6000819050919050565b61176681611753565b82525050565b6000602082019050611781600083018461175d565b92915050565b61179081611753565b811461179b57600080fd5b50565b6000813590506117ad81611787565b92915050565b6000602082840312156117c9576117c861168d565b5b60006117d78482850161179e565b91505092915050565b6117e9816116b2565b82525050565b600060208201905061180460008301846117e0565b92915050565b600080604083850312156118215761182061168d565b5b600061182f8582860161179e565b9250506020611840858286016116db565b9150509250929050565b6118538161171d565b811461185e57600080fd5b50565b6000813590506118708161184a565b92915050565b60006020828403121561188c5761188b61168d565b5b600061189a84828501611861565b91505092915050565b60006040820190506118b8600083018561175d565b6118c560208301846117e0565b9392505050565b6000819050919050565b60006118f16118ec6118e784611692565b6118cc565b611692565b9050919050565b6000611903826118d6565b9050919050565b6000611915826118f8565b9050919050565b6119258161190a565b82525050565b6000602082019050611940600083018461191c565b92915050565b600082825260208201905092915050565b7f42657474696e6720697320636c6f736564000000000000000000000000000000600082015250565b600061198d601183611946565b915061199882611957565b602082019050919050565b600060208201905081810360008301526119bc81611980565b9050919050565b7f496e76616c6964206167656e7400000000000000000000000000000000000000600082015250565b60006119f9600d83611946565b9150611a04826119c3565b602082019050919050565b60006020820190508181036000830152611a28816119ec565b9050919050565b7f42657420616d6f756e74206d757374206265203e203000000000000000000000600082015250565b6000611a65601683611946565b9150611a7082611a2f565b602082019050919050565b60006020820190508181036000830152611a9481611a58565b9050919050565b7f416c726561647920706c61636564206120626574207468697320726f756e6400600082015250565b6000611ad1601f83611946565b9150611adc82611a9b565b602082019050919050565b60006020820190508181036000830152611b0081611ac4565b9050919050565b7f4e487b7100000000000000000000000000000000000000000000000000000000600052601160045260246000fd5b6000611b4182611753565b9150611b4c83611753565b9250828201905080821115611b6457611b63611b07565b5b92915050565b7f4e6f7420612072656769737465726564206167656e7400000000000000000000600082015250565b6000611ba0601683611946565b9150611bab82611b6a565b602082019050919050565b60006020820190508181036000830152611bcf81611b93565b9050919050565b7f4255590000000000000000000000000000000000000000000000000000000000600082015250565b6000611c0c600383611946565b9150611c1782611bd6565b602082019050919050565b60006060820190508181036000830152611c3b81611bff565b9050611c4a602083018561175d565b611c57604083018461175d565b9392505050565b7f496e76616c69642077696e6e6572000000000000000000000000000000000000600082015250565b6000611c94600e83611946565b9150611c9f82611c5e565b602082019050919050565b60006020820190508181036000830152611cc381611c87565b9050919050565b7f526f756e6420616c726561647920656e64656400000000000000000000000000600082015250565b6000611d00601383611946565b9150611d0b82611cca565b602082019050919050565b60006020820190508181036000830152611d2f81611cf3565b9050919050565b7f4e487b7100000000000000000000000000000000000000000000000000000000600052603260045260246000fd5b6000611d7082611753565b9150611d7b83611753565b9250828202611d8981611753565b91508282048414831517611da057611d9f611b07565b5b5092915050565b7f4e487b7100000000000000000000000000000000000000000000000000000000600052601260045260246000fd5b6000611de182611753565b9150611dec83611753565b925082611dfc57611dfb611da7565b5b828204905092915050565b600081905092915050565b50565b6000611e22600083611e07565b9150611e2d82611e12565b600082019050919050565b6000611e4382611e15565b9150819050919050565b6000611e5882611753565b91507fffffffffffffffffffffffffffffffffffffffffffffffffffffffffffffffff8203611e8a57611e89611b07565b5b600182019050919050565b6000611ea082611753565b9150611eab83611753565b9250828203905081811115611ec357611ec2611b07565b5b92915050565b7f496e73756666696369656e742062616c616e6365000000000000000000000000600082015250565b6000611eff601483611946565b9150611f0a82611ec9565b602082019050919050565b60006020820190508181036000830152611f2e81611ef2565b9050919050565b7f53454c4c00000000000000000000000000000000000000000000000000000000600082015250565b6000611f6b600483611946565b9150611f7682611f35565b602082019050919050565b60006060820190508181036000830152611f9a81611f5e565b9050611fa9602083018561175d565b611fb6604083018461175d565b939250505056fea264697066735822122058b6c24073b97da9c57abafe8167795b98350a95706bd7582ca52d9c172b161764736f6c6343000814003360806040523480156200001157600080fd5b506040518060400160405280600881526020017f4d6f636b4d656d650000000000000000000000000000000000000000000000008152506040518060400160405280600481526020017f4d454d450000000000000000000000000000000000000000000000000000000081525081600390816200008f91906200062a565b508060049081620000a191906200062a565b505050620000e433620000b9620000ea60201b60201c565b600a620000c79190620008a1565b633b9aca00620000d89190620008f2565b620000f360201b60201c565b62000a45565b60006012905090565b600073ffffffffffffffffffffffffffffffffffffffff168273ffffffffffffffffffffffffffffffffffffffff1603620001685760006040517fec442f050000000000000000000000000000000000000000000000000000000081526004016200015f919062000982565b60405180910390fd5b6200017c600083836200018060201b60201c565b5050565b600073ffffffffffffffffffffffffffffffffffffffff168373ffffffffffffffffffffffffffffffffffffffff1603620001d6578060026000828254620001c991906200099f565b92505081905550620002ac565b60008060008573ffffffffffffffffffffffffffffffffffffffff1673ffffffffffffffffffffffffffffffffffffffff1681526020019081526020016000205490508181101562000265578381836040517fe450d38c0000000000000000000000000000000000000000000000000000000081526004016200025c93929190620009eb565b60405180910390fd5b8181036000808673ffffffffffffffffffffffffffffffffffffffff1673ffffffffffffffffffffffffffffffffffffffff16815260200190815260200160002081905550505b600073ffffffffffffffffffffffffffffffffffffffff168273ffffffffffffffffffffffffffffffffffffffff1603620002f7578060026000828254039250508190555062000344565b806000808473ffffffffffffffffffffffffffffffffffffffff1673ffffffffffffffffffffffffffffffffffffffff168152602001908152602001600020600082825401925050819055505b8173ffffffffffffffffffffffffffffffffffffffff168373ffffffffffffffffffffffffffffffffffffffff167fddf252ad1be2c89b69c2b068fc378daa952ba7f163c4a11628f55a4df523b3ef83604051620003a3919062000a28565b60405180910390a3505050565b600081519050919050565b7f4e487b7100000000000000000000000000000000000000000000000000000000600052604160045260246000fd5b7f4e487b7100000000000000000000000000000000000000000000000000000000600052602260045260246000fd5b600060028204905060018216806200043257607f821691505b602082108103620004485762000447620003ea565b5b50919050565b60008190508160005260206000209050919050565b60006020601f8301049050919050565b600082821b905092915050565b600060088302620004b27fffffffffffffffffffffffffffffffffffffffffffffffffffffffffffffffff8262000473565b620004be868362000473565b95508019841693508086168417925050509392505050565b6000819050919050565b6000819050919050565b60006200050b62000505620004ff84620004d6565b620004e0565b620004d6565b9050919050565b6000819050919050565b6200052783620004ea565b6200053f620005368262000512565b84845462000480565b825550505050565b600090565b6200055662000547565b620005638184846200051c565b505050565b5b818110156200058b576200057f6000826200054c565b60018101905062000569565b5050565b601f821115620005da57620005a4816200044e565b620005af8462000463565b81016020851015620005bf578190505b620005d7620005ce8562000463565b83018262000568565b50505b505050565b600082821c905092915050565b6000620005ff60001984600802620005df565b1980831691505092915050565b60006200061a8383620005ec565b9150826002028217905092915050565b6200063582620003b0565b67ffffffffffffffff811115620006515762000650620003bb565b5b6200065d825462000419565b6200066a8282856200058f565b600060209050601f831160018114620006a257600084156200068d578287015190505b6200069985826200060c565b86555062000709565b601f198416620006b2866200044e565b60005b82811015620006dc57848901518255600182019150602085019450602081019050620006b5565b86831015620006fc5784890151620006f8601f891682620005ec565b8355505b6001600288020188555050505b505050505050565b7f4e487b7100000000000000000000000000000000000000000000000000000000600052601160045260246000fd5b60008160011c9050919050565b6000808291508390505b60018511156200079f5780860481111562000777576200077662000711565b5b6001851615620007875780820291505b8081029050620007978562000740565b945062000757565b94509492505050565b600082620007ba57600190506200088d565b81620007ca57600090506200088d565b8160018114620007e35760028114620007ee5762000824565b60019150506200088d565b60ff84111562000803576200080262000711565b5b8360020a9150848211156200081d576200081c62000711565b5b506200088d565b5060208310610133831016604e8410600b84101617156200085e5782820a90508381111562000858576200085762000711565b5b6200088d565b6200086d84848460016200074d565b9250905081840481111562000887576200088662000711565b5b81810290505b9392505050565b600060ff82169050919050565b6000620008ae82620004d6565b9150620008bb8362000894565b9250620008ea7fffffffffffffffffffffffffffffffffffffffffffffffffffffffffffffffff8484620007a8565b905092915050565b6000620008ff82620004d6565b91506200090c83620004d6565b92508282026200091c81620004d6565b9150828204841483151762000936576200093562000711565b5b5092915050565b600073ffffffffffffffffffffffffffffffffffffffff82169050919050565b60006200096a826200093d565b9050919050565b6200097c816200095d565b82525050565b600060208201905062000999600083018462000971565b92915050565b6000620009ac82620004d6565b9150620009b983620004d6565b9250828201905080821115620009d457620009d362000711565b5b92915050565b620009e581620004d6565b82525050565b600060608201905062000a02600083018662000971565b62000a116020830185620009da565b62000a206040830184620009da565b949350505050565b600060208201905062000a3f6000830184620009da565b92915050565b610e568062000a556000396000f3fe608060405234801561001057600080fd5b50600436106100935760003560e01c8063313ce56711610066578063313ce5671461013457806370a082311461015257806395d89b4114610182578063a9059cbb146101a0578063dd62ed3e146101d057610093565b806306fdde0314610098578063095ea7b3146100b657806318160ddd146100e657806323b872dd14610104575b600080fd5b6100a0610200565b6040516100ad9190610aaa565b60405180910390f35b6100d060048036038101906100cb9190610b65565b610292565b6040516100dd9190610bc0565b60405180910390f35b6100ee6102b5565b6040516100fb9190610bea565b60405180910390f35b61011e60048036038101906101199190610c05565b6102bf565b60405161012b9190610bc0565b60405180910390f35b61013c6102ee565b6040516101499190610c74565b60405180910390f35b61016c60048036038101906101679190610c8f565b6102f7565b6040516101799190610bea565b60405180910390f35b61018a61033f565b6040516101979190610aaa565b60405180910390f35b6101ba60048036038101906101b59190610b65565b6103d1565b6040516101c79190610bc0565b60405180910390f35b6101ea60048036038101906101e59190610cbc565b6103f4565b6040516101f79190610bea565b60405180910390f35b60606003805461020f90610d2b565b80601f016020809104026020016040519081016040528092919081815260200182805461023b90610d2b565b80156102885780601f1061025d57610100808354040283529160200191610288565b820191906000526020600020905b81548152906001019060200180831161026b57829003601f168201915b5050505050905090565b60008061029d61047b565b90506102aa818585610483565b600191505092915050565b6000600254905090565b6000806102ca61047b565b90506102d7858285610495565b6102e285858561052a565b60019150509392505050565b60006012905090565b60008060008373ffffffffffffffffffffffffffffffffffffffff1673ffffffffffffffffffffffffffffffffffffffff168152602001908152602001600020549050919050565b60606004805461034e90610d2b565b80601f016020809104026020016040519081016040528092919081815260200182805461037a90610d2b565b80156103c75780601f1061039c576101008083540402835291602001916103c7565b820191906000526020600020905b8154815290600101906020018083116103aa57829003601f168201915b5050505050905090565b6000806103dc61047b565b90506103e981858561052a565b600191505092915050565b6000600160008473ffffffffffffffffffffffffffffffffffffffff1673ffffffffffffffffffffffffffffffffffffffff16815260200190815260200160002060008373ffffffffffffffffffffffffffffffffffffffff1673ffffffffffffffffffffffffffffffffffffffff16815260200190815260200160002054905092915050565b600033905090565b610490838383600161061e565b505050565b60006104a184846103f4565b90507fffffffffffffffffffffffffffffffffffffffffffffffffffffffffffffffff8110156105245781811015610514578281836040517ffb8f41b200000000000000000000000000000000000000000000000000000000815260040161050b93929190610d6b565b60405180910390fd5b6105238484848403600061061e565b5b50505050565b600073ffffffffffffffffffffffffffffffffffffffff168373ffffffffffffffffffffffffffffffffffffffff160361059c5760006040517f96c6fd1e0000000000000000000000000000000000000000000000000000000081526004016105939190610da2565b60405180910390fd5b600073ffffffffffffffffffffffffffffffffffffffff168273ffffffffffffffffffffffffffffffffffffffff160361060e5760006040517fec442f050000000000000000000000000000000000000000000000000000000081526004016106059190610da2565b60405180910390fd5b6106198383836107f5565b505050565b600073ffffffffffffffffffffffffffffffffffffffff168473ffffffffffffffffffffffffffffffffffffffff16036106905760006040517fe602df050000000000000000000000000000000000000000000000000000000081526004016106879190610da2565b60405180910390fd5b600073ffffffffffffffffffffffffffffffffffffffff168373ffffffffffffffffffffffffffffffffffffffff16036107025760006040517f94280d620000000000000000000000000000000000000000000000000000000081526004016106f99190610da2565b60405180910390fd5b81600160008673ffffffffffffffffffffffffffffffffffffffff1673ffffffffffffffffffffffffffffffffffffffff16815260200190815260200160002060008573ffffffffffffffffffffffffffffffffffffffff1673ffffffffffffffffffffffffffffffffffffffff1681526020019081526020016000208190555080156107ef578273ffffffffffffffffffffffffffffffffffffffff168473ffffffffffffffffffffffffffffffffffffffff167f8c5be1e5ebec7d5bd14f71427d1e84f3dd0314c0f7b2291e5b200ac8c7c3b925846040516107e69190610bea565b60405180910390a35b50505050565b600073ffffffffffffffffffffffffffffffffffffffff168373ffffffffffffffffffffffffffffffffffffffff160361084757806002600082825461083b9190610dec565b9250508190555061091a565b60008060008573ffffffffffffffffffffffffffffffffffffffff1673ffffffffffffffffffffffffffffffffffffffff168152602001908152602001600020549050818110156108d3578381836040517fe450d38c0000000000000000000000000000000000000000000000000000000081526004016108ca93929190610d6b565b60405180910390fd5b8181036000808673ffffffffffffffffffffffffffffffffffffffff1673ffffffffffffffffffffffffffffffffffffffff16815260200190815260200160002081905550505b600073ffffffffffffffffffffffffffffffffffffffff168273ffffffffffffffffffffffffffffffffffffffff160361096357806002600082825403925050819055506109b0565b806000808473ffffffffffffffffffffffffffffffffffffffff1673ffffffffffffffffffffffffffffffffffffffff168152602001908152602001600020600082825401925050819055505b8173ffffffffffffffffffffffffffffffffffffffff168373ffffffffffffffffffffffffffffffffffffffff167fddf252ad1be2c89b69c2b068fc378daa952ba7f163c4a11628f55a4df523b3ef83604051610a0d9190610bea565b60405180910390a3505050565b600081519050919050565b600082825260208201905092915050565b60005b83811015610a54578082015181840152602081019050610a39565b60008484015250505050565b6000601f19601f8301169050919050565b6000610a7c82610a1a565b610a868185610a25565b9350610a96818560208601610a36565b610a9f81610a60565b840191505092915050565b60006020820190508181036000830152610ac48184610a71565b905092915050565b600080fd5b600073ffffffffffffffffffffffffffffffffffffffff82169050919050565b6000610afc82610ad1565b9050919050565b610b0c81610af1565b8114610b1757600080fd5b50565b600081359050610b2981610b03565b92915050565b6000819050919050565b610b4281610b2f565b8114610b4d57600080fd5b50565b600081359050610b5f81610b39565b92915050565b60008060408385031215610b7c57610b7b610acc565b5b6000610b8a85828601610b1a565b9250506020610b9b85828601610b50565b9150509250929050565b60008115159050919050565b610bba81610ba5565b82525050565b6000602082019050610bd56000830184610bb1565b92915050565b610be481610b2f565b82525050565b6000602082019050610bff6000830184610bdb565b92915050565b600080600060608486031215610c1e57610c1d610acc565b5b6000610c2c86828701610b1a565b9350506020610c3d86828701610b1a565b9250506040610c4e86828701610b50565b9150509250925092565b600060ff82169050919050565b610c6e81610c58565b82525050565b6000602082019050610c896000830184610c65565b92915050565b600060208284031215610ca557610ca4610acc565b5b6000610cb384828501610b1a565b91505092915050565b60008060408385031215610cd357610cd2610acc565b5b6000610ce185828601610b1a565b9250506020610cf285828601610b1a565b9150509250929050565b7f4e487b7100000000000000000000000000000000000000000000000000000000600052602260045260246000fd5b60006002820490506001821680610d4357607f821691505b602082108103610d5657610d55610cfc565b5b50919050565b610d6581610af1565b82525050565b6000606082019050610d806000830186610d5c565b610d8d6020830185610bdb565b610d9a6040830184610bdb565b949350505050565b6000602082019050610db76000830184610d5c565b92915050565b7f4e487b7100000000000000000000000000000000000000000000000000000000600052601160045260246000fd5b6000610df782610b2f565b9150610e0283610b2f565b9250828201905080821115610e1a57610e19610dbd565b5b9291505056fea26469706673582212202319ffd0c06780e289cae8a62bee4e59f128cc5902e9837e2339c78f389022ee64736f6c63430008140033",
  "linkReferences": {},
  "deployedLinkReferences": {}
}