{
    "_format": "hh-sol-artifact-1",
    "contractName": "Arena",
    "sourceName": "contracts/Arena.sol",
    "abi": [
        {
            "inputs": [],
            "stateMutability": "nonpayable",
            "type": "constructor"
        },
        {
            "inputs": [
                {
                    "internalType": "address",
                    "name": "owner",
                    "type": "address"
                }
            ],
            "name": "OwnableInvalidOwner",
            "type": "error"
        },
        {
            "inputs": [
                {
                    "internalType": "address",
                    "name": "account",
                    "type": "address"
                }
            ],
            "name": "OwnableUnauthorizedAccount",
            "type": "error"
        },
        {
            "anonymous": false,
            "inputs": [
                {
                    "indexed": true,
                    "internalType": "address",
                    "name": "agent",
                    "type": "address"
                }
            ],
            "name": "AgentRegistered",
            "type": "event"
        },
        {
            "anonymous": false,
            "inputs": [
                {
                    "indexed": true,
                    "internalType": "address",
                    "name": "user",
                    "type": "address"
                },
                {
                    "indexed": true,
                    "internalType": "address",
                    "name": "agent",
                    "type": "address"
                },
                {
                    "indexed": false,
                    "internalType": "uint256",
                    "name": "amount",
                    "type": "uint256"
                }
            ],
            "name": "BetPlaced",
            "type": "event"
        },
        {
            "anonymous": false,
            "inputs": [
                {
                    "indexed": true,
                    "internalType": "address",
                    "name": "previousOwner",
                    "type": "address"
                },
                {
                    "indexed": true,
                    "internalType": "address",
                    "name": "newOwner",
                    "type": "address"
                }
            ],
            "name": "OwnershipTransferred",
            "type": "event"
        },
        {
            "anonymous": false,
            "inputs": [
                {
                    "indexed": true,
                    "internalType": "address",
                    "name": "user",
                    "type": "address"
                },
                {
                    "indexed": false,
                    "internalType": "uint256",
                    "name": "amount",
                    "type": "uint256"
                }
            ],
            "name": "PrizeClaimed",
            "type": "event"
        },
        {
            "anonymous": false,
            "inputs": [
                {
                    "indexed": true,
                    "internalType": "address",
                    "name": "winner",
                    "type": "address"
                },
                {
                    "indexed": false,
                    "internalType": "uint256",
                    "name": "totalPot",
                    "type": "uint256"
                }
            ],
            "name": "RoundEnded",
            "type": "event"
        },
        {
            "anonymous": false,
            "inputs": [
                {
                    "indexed": true,
                    "internalType": "address",
                    "name": "agent",
                    "type": "address"
                },
                {
                    "indexed": false,
                    "internalType": "string",
                    "name": "action",
                    "type": "string"
                },
                {
                    "indexed": false,
                    "internalType": "uint256",
                    "name": "amount",
                    "type": "uint256"
                },
                {
                    "indexed": false,
                    "internalType": "uint256",
                    "name": "newBalance",
                    "type": "uint256"
                }
            ],
            "name": "Trade",
            "type": "event"
        },
        {
            "inputs": [
                {
                    "internalType": "address",
                    "name": "",
                    "type": "address"
                }
            ],
            "name": "balances",
            "outputs": [
                {
                    "internalType": "uint256",
                    "name": "",
                    "type": "uint256"
                }
            ],
            "stateMutability": "view",
            "type": "function"
        },
        {
            "inputs": [],
            "name": "bettingActive",
            "outputs": [
                {
                    "internalType": "bool",
                    "name": "",
                    "type": "bool"
                }
            ],
            "stateMutability": "view",
            "type": "function"
        },
        {
            "inputs": [
                {
                    "internalType": "uint256",
                    "name": "amount",
                    "type": "uint256"
                }
            ],
            "name": "buy",
            "outputs": [],
            "stateMutability": "nonpayable",
            "type": "function"
        },
        {
            "inputs": [],
            "name": "claimReward",
            "outputs": [],
            "stateMutability": "nonpayable",
            "type": "function"
        },
        {
            "inputs": [
                {
                    "internalType": "address",
                    "name": "_winner",
                    "type": "address"
                }
            ],
            "name": "endRound",
            "outputs": [],
            "stateMutability": "nonpayable",
            "type": "function"
        },
        {
            "inputs": [
                {
                    "internalType": "address",
                    "name": "_agent",
                    "type": "address"
                }
            ],
            "name": "getBalance",
            "outputs": [
                {
                    "internalType": "uint256",
                    "name": "",
                    "type": "uint256"
                }
            ],
            "stateMutability": "view",
            "type": "function"
        },
        {
            "inputs": [
                {
                    "internalType": "address",
                    "name": "",
                    "type": "address"
                }
            ],
            "name": "isAgent",
            "outputs": [
                {
                    "internalType": "bool",
                    "name": "",
                    "type": "bool"
                }
            ],
            "stateMutability": "view",
            "type": "function"
        },
        {
            "inputs": [],
            "name": "owner",
            "outputs": [
                {
                    "internalType": "address",
                    "name": "",
                    "type": "address"
                }
            ],
            "stateMutability": "view",
            "type": "function"
        },
        {
            "inputs": [
                {
                    "internalType": "address",
                    "name": "_agent",
                    "type": "address"
                }
            ],
            "name": "placeBet",
            "outputs": [],
            "stateMutability": "payable",
            "type": "function"
        },
        {
            "inputs": [
                {
                    "internalType": "address",
                    "name": "_agent",
                    "type": "address"
                }
            ],
            "name": "registerAgent",
            "outputs": [],
            "stateMutability": "nonpayable",
            "type": "function"
        },
        {
            "inputs": [],
            "name": "renounceOwnership",
            "outputs": [],
            "stateMutability": "nonpayable",
            "type": "function"
        },
        {
            "inputs": [],
            "name": "roundOver",
            "outputs": [
                {
                    "internalType": "bool",
                    "name": "",
                    "type": "bool"
                }
            ],
            "stateMutability": "view",
            "type": "function"
        },
        {
            "inputs": [
                {
                    "internalType": "uint256",
                    "name": "amount",
                    "type": "uint256"
                }
            ],
            "name": "sell",
            "outputs": [],
            "stateMutability": "nonpayable",
            "type": "function"
        },
        {
            "inputs": [],
            "name": "token",
            "outputs": [
                {
                    "internalType": "contract MockMeme",
                    "name": "",
                    "type": "address"
                }
            ],
            "stateMutability": "view",
            "type": "function"
        },
        {
            "inputs": [
                {
                    "internalType": "address",
                    "name": "",
                    "type": "address"
                }
            ],
            "name": "totalBetsOnAgent",
            "outputs": [
                {
                    "internalType": "uint256",
                    "name": "",
                    "type": "uint256"
                }
            ],
            "stateMutability": "view",
            "type": "function"
        },
        {
            "inputs": [],
            "name": "totalPot",
            "outputs": [
                {
                    "internalType": "uint256",
                    "name": "",
                    "type": "uint256"
                }
            ],
            "stateMutability": "view",
            "type": "function"
        },
        {
            "inputs": [
                {
                    "internalType": "address",
                    "name": "newOwner",
                    "type": "address"
                }
            ],
            "name": "transferOwnership",
            "outputs": [],
            "stateMutability": "nonpayable",
            "type": "function"
        },
        {
            "inputs": [
                {
                    "internalType": "address",
                    "name": "",
                    "type": "address"
                }
            ],
            "name": "userBets",
            "outputs": [
                {
                    "internalType": "uint256",
                    "name": "amount",
                    "type": "uint256"
                },
                {
                    "internalType": "address",
                    "name": "agent",
                    "type": "address"
                },
                {
                    "internalType": "bool",
                    "name": "claimed",
                    "type": "bool"
                }
            ],
            "stateMutability": "view",
            "type": "function"
        },
        {
            "inputs": [],
            "name": "winnerAgent",
            "outputs": [
                {
                    "internalType": "address",
                    "name": "",
                    "type": "address"
                }
            ],
            "stateMutability": "view",
            "type": "function"
        }
    ],
    "bytecode": "0x60806040526001600760006101000a81548160ff0219169083151502179055506000600760156101000a81548160ff0219169083151502179055503480156200004757600080fd5b5033600073ffffffffffffffffffffffffffffffffffffffff168173ffffffffffffffffffffffffffffffffffffffff1603620000be5760006040517f1e4fbdf7000000000000000000000000000000000000000000000000000000008152600401620000b5919062000259565b60405180910390fd5b620000cf816200014260201b60201c565b50604051620000de9062000206565b604051809103906000f080158015620000fb573d6000803e3d6000fd5b50600160006101000a81548173ffffffffffffffffffffffffffffffffffffffff021916908373ffffffffffffffffffffffffffffffffffffffff16021790555062000276565b60008060009054906101000a900473ffffffffffffffffffffffffffffffffffffffff169050816000806101000a81548173ffffffffffffffffffffffffffffffffffffffff021916908373ffffffffffffffffffffffffffffffffffffffff1602179055508173ffffffffffffffffffffffffffffffffffffffff168173ffffffffffffffffffffffffffffffffffffffff167f8be0079c531659141344cd1fd0a4f28419497f9722a3daafe3b4186f6b6457e060405160405180910390a35050565b6118ab806200229183390190565b600073ffffffffffffffffffffffffffffffffffffffff82169050919050565b6000620002418262000214565b9050919050565b620002538162000234565b82525050565b600060208201905062000270600083018462000248565b92915050565b61200b80620002866000396000f3fe6080604052600436106101145760003560e01c80638da5cb5b116100a0578063dff9160911610064578063dff916091461036e578063e4849b32146103ab578063f2fde38b146103d4578063f8b2cb4f146103fd578063fc0c546a1461043a57610114565b80638da5cb5b146102af578063a5ee33cf146102da578063b88a802f14610305578063d96a094a1461031c578063d9a457fe1461034557610114565b8063306b9bb9116100e7578063306b9bb9146101e957806330996897146102125780634e92a6461461022e57806365d0b4421461026d578063715018a61461029857610114565b806314404eb2146101195780631ffbb0641461014457806324b570a91461018157806327e235e3146101ac575b600080fd5b34801561012557600080fd5b5061012e610465565b60405161013b919061153a565b60405180910390f35b34801561015057600080fd5b5061016b600480360381019061016691906115b8565b610478565b604051610178919061153a565b60405180910390f35b34801561018d57600080fd5b50610196610498565b6040516101a391906115fe565b60405180910390f35b3480156101b857600080fd5b506101d360048036038101906101ce91906115b8565b61049e565b6040516101e091906115fe565b60405180910390f35b3480156101f557600080fd5b50610210600480360381019061020b91906115b8565b6104b6565b005b61022c600480360381019061022791906115b8565b61055c565b005b34801561023a57600080fd5b50610255600480360381019061025091906115b8565b6108bd565b60405161026493929190611628565b60405180910390f35b34801561027957600080fd5b50610282610914565b60405161028f919061165f565b60405180910390f35b3480156102a457600080fd5b506102ad61093a565b005b3480156102bb57600080fd5b506102c461094e565b6040516102d1919061165f565b60405180910390f35b3480156102e657600080fd5b506102ef610977565b6040516102fc919061153a565b60405180910390f35b34801561031157600080fd5b5061031a61098a565b005b34801561032857600080fd5b50610343600480360381019061033e91906116a6565b610d07565b005b34801561035157600080fd5b5061036c600480360381019061036791906115b8565b610ecb565b005b34801561037a57600080fd5b50610395600480360381019061039091906115b8565b611079565b6040516103a291906115fe565b60405180910390f35b3480156103b757600080fd5b506103d260048036038101906103cd91906116a6565b611091565b005b3480156103e057600080fd5b506103fb60048036038101906103f691906115b8565b6112d7565b005b34801561040957600080fd5b50610424600480360381019061041f91906115b8565b61135d565b60405161043191906115fe565b60405180910390f35b34801561044657600080fd5b5061044f6113a6565b60405161045c9190611732565b60405180910390f35b600760159054906101000a900460ff1681565b60026020528060005260406000206000915054906101000a900460ff1681565b60065481565b60036020528060005260406000206000915090505481565b6104be6113cc565b6001600260008373ffffffffffffffffffffffffffffffffffffffff1673ffffffffffffffffffffffffffffffffffffffff16815260200190815260200160002060006101000a81548160ff0219169083151502179055508073ffffffffffffffffffffffffffffffffffffffff167f82d0829d9d481e4cb9913897f9b9c903271c4db68c7b3324071d2a7e3b2c5ff060405160405180910390a250565b600760009054906101000a900460ff166105ab576040517f08c379a00000000000000000000000000000000000000000000000000000000081526004016105a2906117aa565b60405180910390fd5b600260008273ffffffffffffffffffffffffffffffffffffffff1673ffffffffffffffffffffffffffffffffffffffff16815260200190815260200160002060009054906101000a900460ff16610637576040517f08c379a000000000000000000000000000000000000000000000000000000000815260040161062e90611816565b60405180910390fd5b6000341161067a576040517f08c379a000000000000000000000000000000000000000000000000000000000815260040161067190611882565b60405180910390fd5b6000600460003373ffffffffffffffffffffffffffffffffffffffff1673ffffffffffffffffffffffffffffffffffffffff16815260200190815260200160002060000154146106ff576040517f08c379a00000000000000000000000000000000000000000000000000000000081526004016106f6906118ee565b60405180910390fd5b60405180606001604052803481526020018273ffffffffffffffffffffffffffffffffffffffff16815260200160001515815250600460003373ffffffffffffffffffffffffffffffffffffffff1673ffffffffffffffffffffffffffffffffffffffff1681526020019081526020016000206000820151816000015560208201518160010160006101000a81548173ffffffffffffffffffffffffffffffffffffffff021916908373ffffffffffffffffffffffffffffffffffffffff16021790555060408201518160010160146101000a81548160ff02191690831515021790555090505034600560008373ffffffffffffffffffffffffffffffffffffffff1673ffffffffffffffffffffffffffffffffffffffff1681526020019081526020016000206000828254610835919061193d565b92505081905550346006600082825461084e919061193d565b925050819055508073ffffffffffffffffffffffffffffffffffffffff163373ffffffffffffffffffffffffffffffffffffffff167f3fe3739e8f82288ea9b537327542d88a4989dfc21c88c5c0c9261a4933520291346040516108b291906115fe565b60405180910390a350565b60046020528060005260406000206000915090508060000154908060010160009054906101000a900473ffffffffffffffffffffffffffffffffffffffff16908060010160149054906101000a900460ff16905083565b600760019054906101000a900473ffffffffffffffffffffffffffffffffffffffff1681565b6109426113cc565b61094c6000611453565b565b60008060009054906101000a900473ffffffffffffffffffffffffffffffffffffffff16905090565b600760009054906101000a900460ff1681565b600760159054906101000a900460ff166109d9576040517f08c379a00000000000000000000000000000000000000000000000000000000081526004016109d0906119bd565b60405180910390fd5b6000600460003373ffffffffffffffffffffffffffffffffffffffff1673ffffffffffffffffffffffffffffffffffffffff16815260200190815260200160002090506000816000015411610a63576040517f08c379a0000000000000000000000000000000000000000000000000000000008152600401610a5a90611a29565b60405180910390fd5b8060010160149054906101000a900460ff1615610ab5576040517f08c379a0000000000000000000000000000000000000000000000000000000008152600401610aac90611a95565b60405180910390fd5b600760019054906101000a900473ffffffffffffffffffffffffffffffffffffffff1673ffffffffffffffffffffffffffffffffffffffff168160010160009054906101000a900473ffffffffffffffffffffffffffffffffffffffff1673ffffffffffffffffffffffffffffffffffffffff1614610b69576040517f08c379a0000000000000000000000000000000000000000000000000000000008152600401610b6090611b01565b60405180910390fd5b600060056000600760019054906101000a900473ffffffffffffffffffffffffffffffffffffffff1673ffffffffffffffffffffffffffffffffffffffff1673ffffffffffffffffffffffffffffffffffffffff168152602001908152602001600020546006548360000154610bdf9190611b21565b610be99190611b92565b905060018260010160146101000a81548160ff02191690831515021790555060003373ffffffffffffffffffffffffffffffffffffffff1682604051610c2e90611bf4565b60006040518083038185875af1925050503d8060008114610c6b576040519150601f19603f3d011682016040523d82523d6000602084013e610c70565b606091505b5050905080610cb4576040517f08c379a0000000000000000000000000000000000000000000000000000000008152600401610cab90611c55565b60405180910390fd5b3373ffffffffffffffffffffffffffffffffffffffff167f95681e512bc0fe659e195e06c283eada494316f3d801213e48e7101af92bf77083604051610cfa91906115fe565b60405180910390a2505050565b600260003373ffffffffffffffffffffffffffffffffffffffff1673ffffffffffffffffffffffffffffffffffffffff16815260200190815260200160002060009054906101000a900460ff16610d93576040517f08c379a0000000000000000000000000000000000000000000000000000000008152600401610d8a90611cc1565b60405180910390fd5b600760159054906101000a900460ff1615610de3576040517f08c379a0000000000000000000000000000000000000000000000000000000008152600401610dda90611d2d565b60405180910390fd5b80600360003373ffffffffffffffffffffffffffffffffffffffff1673ffffffffffffffffffffffffffffffffffffffff1681526020019081526020016000206000828254610e32919061193d565b925050819055503373ffffffffffffffffffffffffffffffffffffffff167ffd2fa88697ecae044911fd6d93ef1fc13ebe8731d66e81850523c39a8dad610982600360003373ffffffffffffffffffffffffffffffffffffffff1673ffffffffffffffffffffffffffffffffffffffff16815260200190815260200160002054604051610ec0929190611d99565b60405180910390a250565b610ed36113cc565b600760159054906101000a900460ff1615610f23576040517f08c379a0000000000000000000000000000000000000000000000000000000008152600401610f1a90611e21565b60405180910390fd5b600260008273ffffffffffffffffffffffffffffffffffffffff1673ffffffffffffffffffffffffffffffffffffffff16815260200190815260200160002060009054906101000a900460ff16610faf576040517f08c379a0000000000000000000000000000000000000000000000000000000008152600401610fa690611e8d565b60405180910390fd5b6001600760156101000a81548160ff0219169083151502179055506000600760006101000a81548160ff02191690831515021790555080600760016101000a81548173ffffffffffffffffffffffffffffffffffffffff021916908373ffffffffffffffffffffffffffffffffffffffff1602179055508073ffffffffffffffffffffffffffffffffffffffff167f1504e40bf894d2b010eafcb1e3f071487f992ec3621a66e43c8c09f67599087360065460405161106e91906115fe565b60405180910390a250565b60056020528060005260406000206000915090505481565b600260003373ffffffffffffffffffffffffffffffffffffffff1673ffffffffffffffffffffffffffffffffffffffff16815260200190815260200160002060009054906101000a900460ff1661111d576040517f08c379a000000000000000000000000000000000000000000000000000000000815260040161111490611cc1565b60405180910390fd5b600760159054906101000a900460ff161561116d576040517f08c379a000000000000000000000000000000000000000000000000000000000815260040161116490611d2d565b60405180910390fd5b80600360003373ffffffffffffffffffffffffffffffffffffffff1673ffffffffffffffffffffffffffffffffffffffff1681526020019081526020016000205410156111ef576040517f08c379a00000000000000000000000000000000000000000000000000000000081526004016111e690611ef9565b60405180910390fd5b80600360003373ffffffffffffffffffffffffffffffffffffffff1673ffffffffffffffffffffffffffffffffffffffff168152602001908152602001600020600082825461123e9190611f19565b925050819055503373ffffffffffffffffffffffffffffffffffffffff167ffd2fa88697ecae044911fd6d93ef1fc13ebe8731d66e81850523c39a8dad610982600360003373ffffffffffffffffffffffffffffffffffffffff1673ffffffffffffffffffffffffffffffffffffffff168152602001908152602001600020546040516112cc929190611f99565b60405180910390a250565b6112df6113cc565b600073ffffffffffffffffffffffffffffffffffffffff168173ffffffffffffffffffffffffffffffffffffffff16036113515760006040517f1e4fbdf7000000000000000000000000000000000000000000000000000000008152600401611348919061165f565b60405180910390fd5b61135a81611453565b50565b6000600360008373ffffffffffffffffffffffffffffffffffffffff1673ffffffffffffffffffffffffffffffffffffffff168152602001908152602001600020549050919050565b600160009054906101000a900473ffffffffffffffffffffffffffffffffffffffff1681565b6113d4611517565b73ffffffffffffffffffffffffffffffffffffffff166113f261094e565b73ffffffffffffffffffffffffffffffffffffffff161461145157611415611517565b6040517f118cdaa7000000000000000000000000000000000000000000000000000000008152600401611448919061165f565b60405180910390fd5b565b60008060009054906101000a900473ffffffffffffffffffffffffffffffffffffffff169050816000806101000a81548173ffffffffffffffffffffffffffffffffffffffff021916908373ffffffffffffffffffffffffffffffffffffffff1602179055508173ffffffffffffffffffffffffffffffffffffffff168173ffffffffffffffffffffffffffffffffffffffff167f8be0079c531659141344cd1fd0a4f28419497f9722a3daafe3b4186f6b6457e060405160405180910390a35050565b600033905090565b60008115159050919050565b6115348161151f565b82525050565b600060208201905061154f600083018461152b565b92915050565b600080fd5b600073ffffffffffffffffffffffffffffffffffffffff82169050919050565b60006115858261155a565b9050919050565b6115958161157a565b81146115a057600080fd5b50565b6000813590506115b28161158c565b92915050565b6000602082840312156115ce576115cd611555565b5b60006115dc848285016115a3565b91505092915050565b6000819050919050565b6115f8816115e5565b82525050565b600060208201905061161360008301846115ef565b92915050565b6116228161157a565b82525050565b600060608201905061163d60008301866115ef565b61164a6020830185611619565b611657604083018461152b565b949350505050565b60006020820190506116746000830184611619565b92915050565b611683816115e5565b811461168e57600080fd5b50565b6000813590506116a08161167a565b92915050565b6000602082840312156116bc576116bb611555565b5b60006116ca84828501611691565b91505092915050565b6000819050919050565b60006116f86116f36116ee8461155a565b6116d3565b61155a565b9050919050565b600061170a826116dd565b9050919050565b600061171c826116ff565b9050919050565b61172c81611711565b82525050565b60006020820190506117476000830184611723565b92915050565b600082825260208201905092915050565b7f42657474696e6720697320636c6f736564000000000000000000000000000000600082015250565b600061179460118361174d565b915061179f8261175e565b602082019050919050565b600060208201905081810360008301526117c381611787565b9050919050565b7f496e76616c6964206167656e7400000000000000000000000000000000000000600082015250565b6000611800600d8361174d565b915061180b826117ca565b602082019050919050565b6000602082019050818103600083015261182f816117f3565b9050919050565b7f42657420616d6f756e74206d757374206265203e203000000000000000000000600082015250565b600061186c60168361174d565b915061187782611836565b602082019050919050565b6000602082019050818103600083015261189b8161185f565b9050919050565b7f416c726561647920706c61636564206120626574000000000000000000000000600082015250565b60006118d860148361174d565b91506118e3826118a2565b602082019050919050565b60006020820190508181036000830152611907816118cb565b9050919050565b7f4e487b7100000000000000000000000000000000000000000000000000000000600052601160045260246000fd5b6000611948826115e5565b9150611953836115e5565b925082820190508082111561196b5761196a61190e565b5b92915050565b7f526f756e64206e6f7420656e6465642079657400000000000000000000000000600082015250565b60006119a760138361174d565b91506119b282611971565b602082019050919050565b600060208201905081810360008301526119d68161199a565b9050919050565b7f4e6f2062657420706c6163656400000000000000000000000000000000000000600082015250565b6000611a13600d8361174d565b9150611a1e826119dd565b602082019050919050565b60006020820190508181036000830152611a4281611a06565b9050919050565b7f416c726561647920636c61696d65640000000000000000000000000000000000600082015250565b6000611a7f600f8361174d565b9150611a8a82611a49565b602082019050919050565b60006020820190508181036000830152611aae81611a72565b9050919050565b7f596f7520626574206f6e207468652077726f6e67206167656e74000000000000600082015250565b6000611aeb601a8361174d565b9150611af682611ab5565b602082019050919050565b60006020820190508181036000830152611b1a81611ade565b9050919050565b6000611b2c826115e5565b9150611b37836115e5565b9250828202611b45816115e5565b91508282048414831517611b5c57611b5b61190e565b5b5092915050565b7f4e487b7100000000000000000000000000000000000000000000000000000000600052601260045260246000fd5b6000611b9d826115e5565b9150611ba8836115e5565b925082611bb857611bb7611b63565b5b828204905092915050565b600081905092915050565b50565b6000611bde600083611bc3565b9150611be982611bce565b600082019050919050565b6000611bff82611bd1565b9150819050919050565b7f4661696c656420746f2073656e64205072697a65000000000000000000000000600082015250565b6000611c3f60148361174d565b9150611c4a82611c09565b602082019050919050565b60006020820190508181036000830152611c6e81611c32565b9050919050565b7f4e6f7420612072656769737465726564206167656e7400000000000000000000600082015250565b6000611cab60168361174d565b9150611cb682611c75565b602082019050919050565b60006020820190508181036000830152611cda81611c9e565b9050919050565b7f526f756e64206973206f76657200000000000000000000000000000000000000600082015250565b6000611d17600d8361174d565b9150611d2282611ce1565b602082019050919050565b60006020820190508181036000830152611d4681611d0a565b9050919050565b7f4255590000000000000000000000000000000000000000000000000000000000600082015250565b6000611d8360038361174d565b9150611d8e82611d4d565b602082019050919050565b60006060820190508181036000830152611db281611d76565b9050611dc160208301856115ef565b611dce60408301846115ef565b9392505050565b7f526f756e6420616c726561647920656e64656400000000000000000000000000600082015250565b6000611e0b60138361174d565b9150611e1682611dd5565b602082019050919050565b60006020820190508181036000830152611e3a81611dfe565b9050919050565b7f496e76616c69642077696e6e6572000000000000000000000000000000000000600082015250565b6000611e77600e8361174d565b9150611e8282611e41565b602082019050919050565b60006020820190508181036000830152611ea681611e6a565b9050919050565b7f496e73756666696369656e742062616c616e6365000000000000000000000000600082015250565b6000611ee360148361174d565b9150611eee82611ead565b602082019050919050565b60006020820190508181036000830152611f1281611ed6565b9050919050565b6000611f24826115e5565b9150611f2f836115e5565b9250828203905081811115611f4757611f4661190e565b5b92915050565b7f53454c4c00000000000000000000000000000000000000000000000000000000600082015250565b6000611f8360048361174d565b9150611f8e82611f4d565b602082019050919050565b60006060820190508181036000830152611fb281611f76565b9050611fc160208301856115ef565b611fce60408301846115ef565b939250505056fea264697066735822122008f04d6874ea48e2b913e602758ab00176c352000d6ad9c6c4551c453034e52e64736f6c6343000814003360806040523480156200001157600080fd5b506040518060400160405280600881526020017f4d6f636b4d656d650000000000000000000000000000000000000000000000008152506040518060400160405280600481526020017f4d454d450000000000000000000000000000000000000000000000000000000081525081600390816200008f91906200062a565b508060049081620000a191906200062a565b505050620000e433620000b9620000ea60201b60201c565b600a620000c79190620008a1565b633b9aca00620000d89190620008f2565b620000f360201b60201c565b62000a45565b60006012905090565b600073ffffffffffffffffffffffffffffffffffffffff168273ffffffffffffffffffffffffffffffffffffffff1603620001685760006040517fec442f050000000000000000000000000000000000000000000000000000000081526004016200015f919062000982565b60405180910390fd5b6200017c600083836200018060201b60201c565b5050565b600073ffffffffffffffffffffffffffffffffffffffff168373ffffffffffffffffffffffffffffffffffffffff1603620001d6578060026000828254620001c991906200099f565b92505081905550620002ac565b60008060008573ffffffffffffffffffffffffffffffffffffffff1673ffffffffffffffffffffffffffffffffffffffff1681526020019081526020016000205490508181101562000265578381836040517fe450d38c0000000000000000000000000000000000000000000000000000000081526004016200025c93929190620009eb565b60405180910390fd5b8181036000808673ffffffffffffffffffffffffffffffffffffffff1673ffffffffffffffffffffffffffffffffffffffff16815260200190815260200160002081905550505b600073ffffffffffffffffffffffffffffffffffffffff168273ffffffffffffffffffffffffffffffffffffffff1603620002f7578060026000828254039250508190555062000344565b806000808473ffffffffffffffffffffffffffffffffffffffff1673ffffffffffffffffffffffffffffffffffffffff168152602001908152602001600020600082825401925050819055505b8173ffffffffffffffffffffffffffffffffffffffff168373ffffffffffffffffffffffffffffffffffffffff167fddf252ad1be2c89b69c2b068fc378daa952ba7f163c4a11628f55a4df523b3ef83604051620003a3919062000a28565b60405180910390a3505050565b600081519050919050565b7f4e487b7100000000000000000000000000000000000000000000000000000000600052604160045260246000fd5b7f4e487b7100000000000000000000000000000000000000000000000000000000600052602260045260246000fd5b600060028204905060018216806200043257607f821691505b602082108103620004485762000447620003ea565b5b50919050565b60008190508160005260206000209050919050565b60006020601f8301049050919050565b600082821b905092915050565b600060088302620004b27fffffffffffffffffffffffffffffffffffffffffffffffffffffffffffffffff8262000473565b620004be868362000473565b95508019841693508086168417925050509392505050565b6000819050919050565b6000819050919050565b60006200050b62000505620004ff84620004d6565b620004e0565b620004d6565b9050919050565b6000819050919050565b6200052783620004ea565b6200053f620005368262000512565b84845462000480565b825550505050565b600090565b6200055662000547565b620005638184846200051c565b505050565b5b818110156200058b576200057f6000826200054c565b60018101905062000569565b5050565b601f821115620005da57620005a4816200044e565b620005af8462000463565b81016020851015620005bf578190505b620005d7620005ce8562000463565b83018262000568565b50505b505050565b600082821c905092915050565b6000620005ff60001984600802620005df565b1980831691505092915050565b60006200061a8383620005ec565b9150826002028217905092915050565b6200063582620003b0565b67ffffffffffffffff811115620006515762000650620003bb565b5b6200065d825462000419565b6200066a8282856200058f565b600060209050601f831160018114620006a257600084156200068d578287015190505b6200069985826200060c565b86555062000709565b601f198416620006b2866200044e565b60005b82811015620006dc57848901518255600182019150602085019450602081019050620006b5565b86831015620006fc5784890151620006f8601f891682620005ec565b8355505b6001600288020188555050505b505050505050565b7f4e487b7100000000000000000000000000000000000000000000000000000000600052601160045260246000fd5b60008160011c9050919050565b6000808291508390505b60018511156200079f5780860481111562000777576200077662000711565b5b6001851615620007875780820291505b8081029050620007978562000740565b945062000757565b94509492505050565b600082620007ba57600190506200088d565b81620007ca57600090506200088d565b8160018114620007e35760028114620007ee5762000824565b60019150506200088d565b60ff84111562000803576200080262000711565b5b8360020a9150848211156200081d576200081c62000711565b5b506200088d565b5060208310610133831016604e8410600b84101617156200085e5782820a90508381111562000858576200085762000711565b5b6200088d565b6200086d84848460016200074d565b9250905081840481111562000887576200088662000711565b5b81810290505b9392505050565b600060ff82169050919050565b6000620008ae82620004d6565b9150620008bb8362000894565b9250620008ea7fffffffffffffffffffffffffffffffffffffffffffffffffffffffffffffffff8484620007a8565b905092915050565b6000620008ff82620004d6565b91506200090c83620004d6565b92508282026200091c81620004d6565b9150828204841483151762000936576200093562000711565b5b5092915050565b600073ffffffffffffffffffffffffffffffffffffffff82169050919050565b60006200096a826200093d565b9050919050565b6200097c816200095d565b82525050565b600060208201905062000999600083018462000971565b92915050565b6000620009ac82620004d6565b9150620009b983620004d6565b9250828201905080821115620009d457620009d362000711565b5b92915050565b620009e581620004d6565b82525050565b600060608201905062000a02600083018662000971565b62000a116020830185620009da565b62000a206040830184620009da565b949350505050565b600060208201905062000a3f6000830184620009da565b92915050565b610e568062000a556000396000f3fe608060405234801561001057600080fd5b50600436106100935760003560e01c8063313ce56711610066578063313ce5671461013457806370a082311461015257806395d89b4114610182578063a9059cbb146101a0578063dd62ed3e146101d057610093565b806306fdde0314610098578063095ea7b3146100b657806318160ddd146100e657806323b872dd14610104575b600080fd5b6100a0610200565b6040516100ad9190610aaa565b60405180910390f35b6100d060048036038101906100cb9190610b65565b610292565b6040516100dd9190610bc0565b60405180910390f35b6100ee6102b5565b6040516100fb9190610bea565b60405180910390f35b61011e60048036038101906101199190610c05565b6102bf565b60405161012b9190610bc0565b60405180910390f35b61013c6102ee565b6040516101499190610c74565b60405180910390f35b61016c60048036038101906101679190610c8f565b6102f7565b6040516101799190610bea565b60405180910390f35b61018a61033f565b6040516101979190610aaa565b60405180910390f35b6101ba60048036038101906101b59190610b65565b6103d1565b6040516101c79190610bc0565b60405180910390f35b6101ea60048036038101906101e59190610cbc565b6103f4565b6040516101f79190610bea565b60405180910390f35b60606003805461020f90610d2b565b80601f016020809104026020016040519081016040528092919081815260200182805461023b90610d2b565b80156102885780601f1061025d57610100808354040283529160200191610288565b820191906000526020600020905b81548152906001019060200180831161026b57829003601f168201915b5050505050905090565b60008061029d61047b565b90506102aa818585610483565b600191505092915050565b6000600254905090565b6000806102ca61047b565b90506102d7858285610495565b6102e285858561052a565b60019150509392505050565b60006012905090565b60008060008373ffffffffffffffffffffffffffffffffffffffff1673ffffffffffffffffffffffffffffffffffffffff168152602001908152602001600020549050919050565b60606004805461034e90610d2b565b80601f016020809104026020016040519081016040528092919081815260200182805461037a90610d2b565b80156103c75780601f1061039c576101008083540402835291602001916103c7565b820191906000526020600020905b8154815290600101906020018083116103aa57829003601f168201915b5050505050905090565b6000806103dc61047b565b90506103e981858561052a565b600191505092915050565b6000600160008473ffffffffffffffffffffffffffffffffffffffff1673ffffffffffffffffffffffffffffffffffffffff16815260200190815260200160002060008373ffffffffffffffffffffffffffffffffffffffff1673ffffffffffffffffffffffffffffffffffffffff16815260200190815260200160002054905092915050565b600033905090565b610490838383600161061e565b505050565b60006104a184846103f4565b90507fffffffffffffffffffffffffffffffffffffffffffffffffffffffffffffffff8110156105245781811015610514578281836040517ffb8f41b200000000000000000000000000000000000000000000000000000000815260040161050b93929190610d6b565b60405180910390fd5b6105238484848403600061061e565b5b50505050565b600073ffffffffffffffffffffffffffffffffffffffff168373ffffffffffffffffffffffffffffffffffffffff160361059c5760006040517f96c6fd1e0000000000000000000000000000000000000000000000000000000081526004016105939190610da2565b60405180910390fd5b600073ffffffffffffffffffffffffffffffffffffffff168273ffffffffffffffffffffffffffffffffffffffff160361060e5760006040517fec442f050000000000000000000000000000000000000000000000000000000081526004016106059190610da2565b60405180910390fd5b6106198383836107f5565b505050565b600073ffffffffffffffffffffffffffffffffffffffff168473ffffffffffffffffffffffffffffffffffffffff16036106905760006040517fe602df050000000000000000000000000000000000000000000000000000000081526004016106879190610da2565b60405180910390fd5b600073ffffffffffffffffffffffffffffffffffffffff168373ffffffffffffffffffffffffffffffffffffffff16036107025760006040517f94280d620000000000000000000000000000000000000000000000000000000081526004016106f99190610da2565b60405180910390fd5b81600160008673ffffffffffffffffffffffffffffffffffffffff1673ffffffffffffffffffffffffffffffffffffffff16815260200190815260200160002060008573ffffffffffffffffffffffffffffffffffffffff1673ffffffffffffffffffffffffffffffffffffffff1681526020019081526020016000208190555080156107ef578273ffffffffffffffffffffffffffffffffffffffff168473ffffffffffffffffffffffffffffffffffffffff167f8c5be1e5ebec7d5bd14f71427d1e84f3dd0314c0f7b2291e5b200ac8c7c3b925846040516107e69190610bea565b60405180910390a35b50505050565b600073ffffffffffffffffffffffffffffffffffffffff168373ffffffffffffffffffffffffffffffffffffffff160361084757806002600082825461083b9190610dec565b9250508190555061091a565b60008060008573ffffffffffffffffffffffffffffffffffffffff1673ffffffffffffffffffffffffffffffffffffffff168152602001908152602001600020549050818110156108d3578381836040517fe450d38c0000000000000000000000000000000000000000000000000000000081526004016108ca93929190610d6b565b60405180910390fd5b8181036000808673ffffffffffffffffffffffffffffffffffffffff1673ffffffffffffffffffffffffffffffffffffffff16815260200190815260200160002081905550505b600073ffffffffffffffffffffffffffffffffffffffff168273ffffffffffffffffffffffffffffffffffffffff160361096357806002600082825403925050819055506109b0565b806000808473ffffffffffffffffffffffffffffffffffffffff1673ffffffffffffffffffffffffffffffffffffffff168152602001908152602001600020600082825401925050819055505b8173ffffffffffffffffffffffffffffffffffffffff168373ffffffffffffffffffffffffffffffffffffffff167fddf252ad1be2c89b69c2b068fc378daa952ba7f163c4a11628f55a4df523b3ef83604051610a0d9190610bea565b60405180910390a3505050565b600081519050919050565b600082825260208201905092915050565b60005b83811015610a54578082015181840152602081019050610a39565b60008484015250505050565b6000601f19601f8301169050919050565b6000610a7c82610a1a565b610a868185610a25565b9350610a96818560208601610a36565b610a9f81610a60565b840191505092915050565b60006020820190508181036000830152610ac48184610a71565b905092915050565b600080fd5b600073ffffffffffffffffffffffffffffffffffffffff82169050919050565b6000610afc82610ad1565b9050919050565b610b0c81610af1565b8114610b1757600080fd5b50565b600081359050610b2981610b03565b92915050565b6000819050919050565b610b4281610b2f565b8114610b4d57600080fd5b50565b600081359050610b5f81610b39565b92915050565b60008060408385031215610b7c57610b7b610acc565b5b6000610b8a85828601610b1a565b9250506020610b9b85828601610b50565b9150509250929050565b60008115159050919050565b610bba81610ba5565b82525050565b6000602082019050610bd56000830184610bb1565b92915050565b610be481610b2f565b82525050565b6000602082019050610bff6000830184610bdb565b92915050565b600080600060608486031215610c1e57610c1d610acc565b5b6000610c2c86828701610b1a565b9350506020610c3d86828701610b1a565b9250506040610c4e86828701610b50565b9150509250925092565b600060ff82169050919050565b610c6e81610c58565b82525050565b6000602082019050610c896000830184610c65565b92915050565b600060208284031215610ca557610ca4610acc565b5b6000610cb384828501610b1a565b91505092915050565b60008060408385031215610cd357610cd2610acc565b5b6000610ce185828601610b1a565b9250506020610cf285828601610b1a565b9150509250929050565b7f4e487b7100000000000000000000000000000000000000000000000000000000600052602260045260246000fd5b60006002820490506001821680610d4357607f821691505b602082108103610d5657610d55610cfc565b5b50919050565b610d6581610af1565b82525050565b6000606082019050610d806000830186610d5c565b610d8d6020830185610bdb565b610d9a6040830184610bdb565b949350505050565b6000602082019050610db76000830184610d5c565b92915050565b7f4e487b7100000000000000000000000000000000000000000000000000000000600052601160045260246000fd5b6000610df782610b2f565b9150610e0283610b2f565b9250828201905080821115610e1a57610e19610dbd565b5b9291505056fea26469706673582212202faa616e383d854a7957df6a466a1be17190e06d2263a28261c77b992460a1e464736f6c63430008140033",
    "linkReferences": {},
    "deployedLinkReferences": {}
}